{
  "contractName": "Exchange",
  "abi": [
    {
      "constant": false,
      "inputs": [
        {
          "name": "symbolName",
          "type": "string"
        },
        {
          "name": "erc20tokenAddress",
          "type": "address"
        }
      ],
      "name": "addToken",
      "outputs": [],
      "payable": false,
      "stateMutability": "nonpayable",
      "type": "function"
    },
    {
      "constant": true,
      "inputs": [
        {
          "name": "symbolName",
          "type": "string"
        }
      ],
      "name": "hasToken",
      "outputs": [
        {
          "name": "",
          "type": "bool"
        }
      ],
      "payable": false,
      "stateMutability": "view",
      "type": "function"
    }
  ],
  "bytecode": "0x6060604052336000806101000a81548173ffffffffffffffffffffffffffffffffffffffff021916908373ffffffffffffffffffffffffffffffffffffffff160217905550610566806100536000396000f30060606040526004361061004c576000357c0100000000000000000000000000000000000000000000000000000000900463ffffffff1680638ea0081814610051578063b0b22c2c146100c6575b600080fd5b341561005c57600080fd5b6100ac600480803590602001908201803590602001908080601f01602080910402602001604051908101604052809392919081815260200183838082843782019150505050505091905050610142565b604051808215151515815260200191505060405180910390f35b34156100d157600080fd5b610140600480803590602001908201803590602001908080601f0160208091040260200160405190810160405280939291908181526020018383808284378201915050505050509190803573ffffffffffffffffffffffffffffffffffffffff1690602001909190505061016a565b005b60008061014e836102b5565b60ff1614156101605760009050610165565b600190505b919050565b6000809054906101000a900473ffffffffffffffffffffffffffffffffffffffff1673ffffffffffffffffffffffffffffffffffffffff163373ffffffffffffffffffffffffffffffffffffffff1614156102b1576101c882610142565b1515156101d457600080fd5b6002600081819054906101000a900460ff168092919060010191906101000a81548160ff021916908360ff160217905550508160016000600260009054906101000a900460ff1660ff1660ff1681526020019081526020016000206001019080519060200190610245929190610495565b508060016000600260009054906101000a900460ff1660ff1660ff16815260200190815260200160002060000160006101000a81548173ffffffffffffffffffffffffffffffffffffffff021916908373ffffffffffffffffffffffffffffffffffffffff1602179055505b5050565b600080600190505b600260009054906101000a900460ff1660ff168160ff161115156103b157610399600160008360ff1660ff1681526020019081526020016000206001018054600181600116156101000203166002900480601f01602080910402602001604051908101604052809291908181526020018280546001816001161561010002031660029004801561038e5780601f106103635761010080835404028352916020019161038e565b820191906000526020600020905b81548152906001019060200180831161037157829003601f168201915b5050505050846103bc565b156103a6578091506103b6565b8060010190506102bd565b600091505b50919050565b6000816040518082805190602001908083835b6020831015156103f457805182526020820191506020810190506020830392506103cf565b6001836020036101000a038019825116818451168082178552505050505050905001915050604051809103902060001916836040518082805190602001908083835b60208310151561045b5780518252602082019150602081019050602083039250610436565b6001836020036101000a03801982511681845116808217855250505050505090500191505060405180910390206000191614905092915050565b828054600181600116156101000203166002900490600052602060002090601f016020900481019282601f106104d657805160ff1916838001178555610504565b82800160010185558215610504579182015b828111156105035782518255916020019190600101906104e8565b5b5090506105119190610515565b5090565b61053791905b8082111561053357600081600090555060010161051b565b5090565b905600a165627a7a72305820b7b27742b6539ab66300aece8b7c28a008f9c05d1c02e0ecfa3e105a0fcf3b1f0029",
  "source": "pragma solidity ^0.4.8;\n\nimport \"./owned.sol\";\nimport \"./FixedSupplyToken.sol\";\n\ncontract Exchange is owned {\n    //Structures used\n\n    struct Offer {\n        uint amount;\n        address who;\n    }\n\n    struct OrderBook {\n        uint higherPrice;\n        uint lowerPrice;\n\n        mapping(uint8 => Offer) offers;\n        uint8 offersLength;\n    }\n\n    struct Token {\n        address tokenContract;\n        string symbolName;\n\n        mapping(uint8 => Offer) buyBook;\n        uint8 buyBookLength;\n\n        uint currentBuyPrice;\n        uint lowestBuyPrice;\n        uint amountBuyPrices;\n\n        mapping(uint8 => Offer) sellBook;\n        uint8 sellBookLength;\n\n        uint currentSellPrice;\n        uint highestSellPrice;\n        uint amountSellPrice;\n    }\n\n    mapping(uint8 => Token) tokens;\n    uint8 tokensLength;\n\n    //Balances\n    mapping (address => mapping (uint8 => uint)) tokenBalanceForAddress;\n\n    mapping (address => uint) balanceEthForAddress;\n\n    //Token Management\n\n    function addToken(string symbolName, address erc20tokenAddress) public onlyOwner {\n        //check if a token with that symbol has been already added\n        require(!hasToken(symbolName));\n        tokensLength++;\n        tokens[tokensLength].symbolName = symbolName;\n        tokens[tokensLength].tokenContract = erc20tokenAddress;\n    }\n\n    function hasToken(string symbolName) public view returns (bool) {\n        if (getSymbolIndex(symbolName) == 0) {\n            return false;\n        }\n        return true;\n    }\n\n    function getSymbolIndex(string symbolName) internal view returns (uint8) {\n        for (uint8 i = 1; i <= tokensLength; ++i) {\n            if (stringsEqual(tokens[i].symbolName, symbolName)) {\n                return i;\n            }\n        }\n        return 0;\n    }\n\n    function stringsEqual(string a, string b) internal pure returns (bool) {\n        return keccak256(a) == keccak256(b);\n    }\n}",
  "sourcePath": "/Users/narekh/Projects/truffle/contracts/Exchange.sol",
  "compiler": {
    "name": "solc",
    "version": "0.4.19+commit.c4cbbb05.Emscripten.clang"
  },
  "schemaVersion": "1.0.1",
  "updatedAt": "2018-02-11T17:21:01.359Z"
}